{
  "_format": "hh-sol-artifact-1",
  "contractName": "MyEpicNFT",
  "sourceName": "contracts/MyEpicNFT.sol",
  "abi": [
    {
      "inputs": [],
      "stateMutability": "nonpayable",
      "type": "constructor"
    },
    {
      "anonymous": false,
      "inputs": [
        {
          "indexed": true,
          "internalType": "address",
          "name": "owner",
          "type": "address"
        },
        {
          "indexed": true,
          "internalType": "address",
          "name": "approved",
          "type": "address"
        },
        {
          "indexed": true,
          "internalType": "uint256",
          "name": "tokenId",
          "type": "uint256"
        }
      ],
      "name": "Approval",
      "type": "event"
    },
    {
      "anonymous": false,
      "inputs": [
        {
          "indexed": true,
          "internalType": "address",
          "name": "owner",
          "type": "address"
        },
        {
          "indexed": true,
          "internalType": "address",
          "name": "operator",
          "type": "address"
        },
        {
          "indexed": false,
          "internalType": "bool",
          "name": "approved",
          "type": "bool"
        }
      ],
      "name": "ApprovalForAll",
      "type": "event"
    },
    {
      "anonymous": false,
      "inputs": [
        {
          "indexed": false,
          "internalType": "address",
          "name": "sender",
          "type": "address"
        },
        {
          "indexed": false,
          "internalType": "uint256",
          "name": "tokenId",
          "type": "uint256"
        }
      ],
      "name": "NewEpicNFTMinted",
      "type": "event"
    },
    {
      "anonymous": false,
      "inputs": [
        {
          "indexed": true,
          "internalType": "address",
          "name": "from",
          "type": "address"
        },
        {
          "indexed": true,
          "internalType": "address",
          "name": "to",
          "type": "address"
        },
        {
          "indexed": true,
          "internalType": "uint256",
          "name": "tokenId",
          "type": "uint256"
        }
      ],
      "name": "Transfer",
      "type": "event"
    },
    {
      "inputs": [
        {
          "internalType": "address",
          "name": "to",
          "type": "address"
        },
        {
          "internalType": "uint256",
          "name": "tokenId",
          "type": "uint256"
        }
      ],
      "name": "approve",
      "outputs": [],
      "stateMutability": "nonpayable",
      "type": "function"
    },
    {
      "inputs": [
        {
          "internalType": "address",
          "name": "owner",
          "type": "address"
        }
      ],
      "name": "balanceOf",
      "outputs": [
        {
          "internalType": "uint256",
          "name": "",
          "type": "uint256"
        }
      ],
      "stateMutability": "view",
      "type": "function"
    },
    {
      "inputs": [
        {
          "internalType": "uint256",
          "name": "tokenId",
          "type": "uint256"
        }
      ],
      "name": "getApproved",
      "outputs": [
        {
          "internalType": "address",
          "name": "",
          "type": "address"
        }
      ],
      "stateMutability": "view",
      "type": "function"
    },
    {
      "inputs": [],
      "name": "getTotalNFTsMintedSoFar",
      "outputs": [
        {
          "internalType": "uint256",
          "name": "",
          "type": "uint256"
        }
      ],
      "stateMutability": "view",
      "type": "function"
    },
    {
      "inputs": [
        {
          "internalType": "address",
          "name": "owner",
          "type": "address"
        },
        {
          "internalType": "address",
          "name": "operator",
          "type": "address"
        }
      ],
      "name": "isApprovedForAll",
      "outputs": [
        {
          "internalType": "bool",
          "name": "",
          "type": "bool"
        }
      ],
      "stateMutability": "view",
      "type": "function"
    },
    {
      "inputs": [],
      "name": "makeAnEpicNFT",
      "outputs": [],
      "stateMutability": "nonpayable",
      "type": "function"
    },
    {
      "inputs": [],
      "name": "name",
      "outputs": [
        {
          "internalType": "string",
          "name": "",
          "type": "string"
        }
      ],
      "stateMutability": "view",
      "type": "function"
    },
    {
      "inputs": [
        {
          "internalType": "uint256",
          "name": "tokenId",
          "type": "uint256"
        }
      ],
      "name": "ownerOf",
      "outputs": [
        {
          "internalType": "address",
          "name": "",
          "type": "address"
        }
      ],
      "stateMutability": "view",
      "type": "function"
    },
    {
      "inputs": [
        {
          "internalType": "uint256",
          "name": "tokenId",
          "type": "uint256"
        }
      ],
      "name": "pickRandomColor",
      "outputs": [
        {
          "internalType": "string",
          "name": "",
          "type": "string"
        }
      ],
      "stateMutability": "view",
      "type": "function"
    },
    {
      "inputs": [
        {
          "internalType": "uint256",
          "name": "tokenId",
          "type": "uint256"
        }
      ],
      "name": "pickRandomFirstWord",
      "outputs": [
        {
          "internalType": "string",
          "name": "",
          "type": "string"
        }
      ],
      "stateMutability": "view",
      "type": "function"
    },
    {
      "inputs": [
        {
          "internalType": "uint256",
          "name": "tokenId",
          "type": "uint256"
        }
      ],
      "name": "pickRandomSecondWord",
      "outputs": [
        {
          "internalType": "string",
          "name": "",
          "type": "string"
        }
      ],
      "stateMutability": "view",
      "type": "function"
    },
    {
      "inputs": [
        {
          "internalType": "uint256",
          "name": "tokenId",
          "type": "uint256"
        }
      ],
      "name": "pickRandomThirdWord",
      "outputs": [
        {
          "internalType": "string",
          "name": "",
          "type": "string"
        }
      ],
      "stateMutability": "view",
      "type": "function"
    },
    {
      "inputs": [
        {
          "internalType": "address",
          "name": "from",
          "type": "address"
        },
        {
          "internalType": "address",
          "name": "to",
          "type": "address"
        },
        {
          "internalType": "uint256",
          "name": "tokenId",
          "type": "uint256"
        }
      ],
      "name": "safeTransferFrom",
      "outputs": [],
      "stateMutability": "nonpayable",
      "type": "function"
    },
    {
      "inputs": [
        {
          "internalType": "address",
          "name": "from",
          "type": "address"
        },
        {
          "internalType": "address",
          "name": "to",
          "type": "address"
        },
        {
          "internalType": "uint256",
          "name": "tokenId",
          "type": "uint256"
        },
        {
          "internalType": "bytes",
          "name": "_data",
          "type": "bytes"
        }
      ],
      "name": "safeTransferFrom",
      "outputs": [],
      "stateMutability": "nonpayable",
      "type": "function"
    },
    {
      "inputs": [
        {
          "internalType": "address",
          "name": "operator",
          "type": "address"
        },
        {
          "internalType": "bool",
          "name": "approved",
          "type": "bool"
        }
      ],
      "name": "setApprovalForAll",
      "outputs": [],
      "stateMutability": "nonpayable",
      "type": "function"
    },
    {
      "inputs": [
        {
          "internalType": "bytes4",
          "name": "interfaceId",
          "type": "bytes4"
        }
      ],
      "name": "supportsInterface",
      "outputs": [
        {
          "internalType": "bool",
          "name": "",
          "type": "bool"
        }
      ],
      "stateMutability": "view",
      "type": "function"
    },
    {
      "inputs": [],
      "name": "symbol",
      "outputs": [
        {
          "internalType": "string",
          "name": "",
          "type": "string"
        }
      ],
      "stateMutability": "view",
      "type": "function"
    },
    {
      "inputs": [
        {
          "internalType": "uint256",
          "name": "tokenId",
          "type": "uint256"
        }
      ],
      "name": "tokenURI",
      "outputs": [
        {
          "internalType": "string",
          "name": "",
          "type": "string"
        }
      ],
      "stateMutability": "view",
      "type": "function"
    },
    {
      "inputs": [
        {
          "internalType": "address",
          "name": "from",
          "type": "address"
        },
        {
          "internalType": "address",
          "name": "to",
          "type": "address"
        },
        {
          "internalType": "uint256",
          "name": "tokenId",
          "type": "uint256"
        }
      ],
      "name": "transferFrom",
      "outputs": [],
      "stateMutability": "nonpayable",
      "type": "function"
    }
  ],
  "bytecode": "0x608060405260405180610100016040528060d3815260200162004b5a60d39139600890805190602001906200003692919062000cca565b5060405180608001604052806056815260200162004c2d60569139600990805190602001906200006892919062000cca565b506040518061028001604052806040518060400160405280600581526020017f486172727900000000000000000000000000000000000000000000000000000081525081526020016040518060400160405280600881526020017f4865726d696f6e6500000000000000000000000000000000000000000000000081525081526020016040518060400160405280600681526020017f526f6e616c64000000000000000000000000000000000000000000000000000081525081526020016040518060400160405280600481526020017f4c756e610000000000000000000000000000000000000000000000000000000081525081526020016040518060400160405280600781526020017f4e6576696c6c650000000000000000000000000000000000000000000000000081525081526020016040518060400160405280600681526020017f436564726963000000000000000000000000000000000000000000000000000081525081526020016040518060400160405280600681526020017f527562657573000000000000000000000000000000000000000000000000000081525081526020016040518060400160405280600581526020017f416c62757300000000000000000000000000000000000000000000000000000081525081526020016040518060400160405280600781526020017f536576657275730000000000000000000000000000000000000000000000000081525081526020016040518060400160405280600781526020017f4d696e657276610000000000000000000000000000000000000000000000000081525081526020016040518060400160405280600381526020017f546f6d000000000000000000000000000000000000000000000000000000000081525081526020016040518060400160405280600581526020017f42696c6c7900000000000000000000000000000000000000000000000000000081525081526020016040518060400160405280600581526020017f4a616d657300000000000000000000000000000000000000000000000000000081525081526020016040518060400160405280600481526020017f4c696c790000000000000000000000000000000000000000000000000000000081525081526020016040518060400160405280600581526020017f447261636f00000000000000000000000000000000000000000000000000000081525081526020016040518060400160405280600681526020017f536972697573000000000000000000000000000000000000000000000000000081525081526020016040518060400160405280600581526020017f52656d757300000000000000000000000000000000000000000000000000000081525081526020016040518060400160405280600481526020017f467265640000000000000000000000000000000000000000000000000000000081525081526020016040518060400160405280600681526020017f47656f726765000000000000000000000000000000000000000000000000000081525081526020016040518060400160405280600581526020017f47696e6e79000000000000000000000000000000000000000000000000000000815250815250600a9060146200052192919062000d5b565b50604051806101c001604052806040518060400160405280600681526020017f506f74746572000000000000000000000000000000000000000000000000000081525081526020016040518060400160405280600781526020017f4772616e6765720000000000000000000000000000000000000000000000000081525081526020016040518060400160405280600781526020017f576561736c65790000000000000000000000000000000000000000000000000081525081526020016040518060400160405280600881526020017f4c6f7665676f6f6400000000000000000000000000000000000000000000000081525081526020016040518060400160405280600a81526020017f4c6f6e67426f74746f6d0000000000000000000000000000000000000000000081525081526020016040518060400160405280600781526020017f446967676f72790000000000000000000000000000000000000000000000000081525081526020016040518060400160405280600681526020017f486167726964000000000000000000000000000000000000000000000000000081525081526020016040518060400160405280600a81526020017f44756d626c65646f6f720000000000000000000000000000000000000000000081525081526020016040518060400160405280600581526020017f536e61706500000000000000000000000000000000000000000000000000000081525081526020016040518060400160405280600a81526020017f4d63476f6e6167616c6c0000000000000000000000000000000000000000000081525081526020016040518060400160405280600681526020017f526964646c65000000000000000000000000000000000000000000000000000081525081526020016040518060400160405280600681526020017f4d616c666f79000000000000000000000000000000000000000000000000000081525081526020016040518060400160405280600581526020017f426c61636b00000000000000000000000000000000000000000000000000000081525081526020016040518060400160405280600581526020017f4c7570696e000000000000000000000000000000000000000000000000000000815250815250600b90600e6200087892919062000dc2565b5060405180608001604052806040518060400160405280600a81526020017f4772796666696e646f720000000000000000000000000000000000000000000081525081526020016040518060400160405280600981526020017f536c7974686572696e000000000000000000000000000000000000000000000081525081526020016040518060400160405280600981526020017f526176656e636c6177000000000000000000000000000000000000000000000081525081526020016040518060400160405280600a81526020017f487566666c657075666600000000000000000000000000000000000000000000815250815250600c9060046200098092919062000e29565b506040518060c001604052806040518060400160405280600381526020017f726564000000000000000000000000000000000000000000000000000000000081525081526020016040518060400160405280600781526020017f233038433241380000000000000000000000000000000000000000000000000081525081526020016040518060400160405280600581526020017f626c61636b00000000000000000000000000000000000000000000000000000081525081526020016040518060400160405280600681526020017f79656c6c6f77000000000000000000000000000000000000000000000000000081525081526020016040518060400160405280600481526020017f626c75650000000000000000000000000000000000000000000000000000000081525081526020016040518060400160405280600581526020017f677265656e000000000000000000000000000000000000000000000000000000815250815250600d90600662000afe92919062000e90565b5034801562000b0c57600080fd5b506040518060400160405280600981526020017f5371756172654e465400000000000000000000000000000000000000000000008152506040518060400160405280600681526020017f5351554152450000000000000000000000000000000000000000000000000000815250816000908051906020019062000b9192919062000cca565b50806001908051906020019062000baa92919062000cca565b50505062000bf86040518060400160405280601e81526020017f54686973206973206d79204e465420636f6e74726163742e20576f616821000081525062000bfe60201b620012711760201c565b620010b1565b62000c9e8160405160240162000c15919062000fc5565b6040516020818303038152906040527f41304fac000000000000000000000000000000000000000000000000000000007bffffffffffffffffffffffffffffffffffffffffffffffffffffffff19166020820180517bffffffffffffffffffffffffffffffffffffffffffffffffffffffff838183161783525050505062000ca160201b60201c565b50565b60008151905060006a636f6e736f6c652e6c6f679050602083016000808483855afa5050505050565b82805462000cd8906200103b565b90600052602060002090601f01602090048101928262000cfc576000855562000d48565b82601f1062000d1757805160ff191683800117855562000d48565b8280016001018555821562000d48579182015b8281111562000d4757825182559160200191906001019062000d2a565b5b50905062000d57919062000ef7565b5090565b82805482825590600052602060002090810192821562000daf579160200282015b8281111562000dae57825182908051906020019062000d9d92919062000cca565b509160200191906001019062000d7c565b5b50905062000dbe919062000f16565b5090565b82805482825590600052602060002090810192821562000e16579160200282015b8281111562000e1557825182908051906020019062000e0492919062000cca565b509160200191906001019062000de3565b5b50905062000e25919062000f16565b5090565b82805482825590600052602060002090810192821562000e7d579160200282015b8281111562000e7c57825182908051906020019062000e6b92919062000cca565b509160200191906001019062000e4a565b5b50905062000e8c919062000f16565b5090565b82805482825590600052602060002090810192821562000ee4579160200282015b8281111562000ee357825182908051906020019062000ed292919062000cca565b509160200191906001019062000eb1565b5b50905062000ef3919062000f16565b5090565b5b8082111562000f1257600081600090555060010162000ef8565b5090565b5b8082111562000f3a576000818162000f30919062000f3e565b5060010162000f17565b5090565b50805462000f4c906200103b565b6000825580601f1062000f60575062000f81565b601f01602090049060005260206000209081019062000f80919062000ef7565b5b50565b600062000f918262000fe9565b62000f9d818562000ff4565b935062000faf81856020860162001005565b62000fba81620010a0565b840191505092915050565b6000602082019050818103600083015262000fe1818462000f84565b905092915050565b600081519050919050565b600082825260208201905092915050565b60005b838110156200102557808201518184015260208101905062001008565b8381111562001035576000848401525b50505050565b600060028204905060018216806200105457607f821691505b602082108114156200106b576200106a62001071565b5b50919050565b7f4e487b7100000000000000000000000000000000000000000000000000000000600052602260045260246000fd5b6000601f19601f8301169050919050565b613a9980620010c16000396000f3fe608060405234801561001057600080fd5b50600436106101215760003560e01c80636352211e116100ad578063b88d4fde11610071578063b88d4fde14610340578063c575757a1461035c578063c87b56dd1461038c578063de9d132f146103bc578063e985e9c5146103c657610121565b80636352211e1461027657806370a08231146102a657806395d89b41146102d6578063a22cb465146102f4578063b187301f1461031057610121565b8063095ea7b3116100f4578063095ea7b3146101c257806323b872dd146101de5780632de38d68146101fa57806342842e0e1461022a578063514dc8c61461024657610121565b806301ffc9a714610126578063060475901461015657806306fdde0314610174578063081812fc14610192575b600080fd5b610140600480360381019061013b9190612671565b6103f6565b60405161014d919061330f565b60405180910390f35b61015e6104d8565b60405161016b919061358a565b60405180910390f35b61017c6104e9565b604051610189919061332a565b60405180910390f35b6101ac60048036038101906101a791906126c3565b61057b565b6040516101b9919061327f565b60405180910390f35b6101dc60048036038101906101d79190612635565b610600565b005b6101f860048036038101906101f3919061252f565b610718565b005b610214600480360381019061020f91906126c3565b610778565b604051610221919061332a565b60405180910390f35b610244600480360381019061023f919061252f565b610896565b005b610260600480360381019061025b91906126c3565b6108b6565b60405161026d919061332a565b60405180910390f35b610290600480360381019061028b91906126c3565b6109d4565b60405161029d919061327f565b60405180910390f35b6102c060048036038101906102bb91906124ca565b610a86565b6040516102cd919061358a565b60405180910390f35b6102de610b3e565b6040516102eb919061332a565b60405180910390f35b61030e600480360381019061030991906125f9565b610bd0565b005b61032a600480360381019061032591906126c3565b610be6565b604051610337919061332a565b60405180910390f35b61035a6004803603810190610355919061257e565b610d04565b005b610376600480360381019061037191906126c3565b610d66565b604051610383919061332a565b60405180910390f35b6103a660048036038101906103a191906126c3565b610e84565b6040516103b3919061332a565b60405180910390f35b6103c4610fd6565b005b6103e060048036038101906103db91906124f3565b6111dd565b6040516103ed919061330f565b60405180910390f35b60007f80ac58cd000000000000000000000000000000000000000000000000000000007bffffffffffffffffffffffffffffffffffffffffffffffffffffffff1916827bffffffffffffffffffffffffffffffffffffffffffffffffffffffff191614806104c157507f5b5e139f000000000000000000000000000000000000000000000000000000007bffffffffffffffffffffffffffffffffffffffffffffffffffffffff1916827bffffffffffffffffffffffffffffffffffffffffffffffffffffffff1916145b806104d157506104d08261130a565b5b9050919050565b60006104e46007611374565b905090565b6060600080546104f890613829565b80601f016020809104026020016040519081016040528092919081815260200182805461052490613829565b80156105715780601f1061054657610100808354040283529160200191610571565b820191906000526020600020905b81548152906001019060200180831161055457829003601f168201915b5050505050905090565b600061058682611382565b6105c5576040517f08c379a00000000000000000000000000000000000000000000000000000000081526004016105bc906134ea565b60405180910390fd5b6004600083815260200190815260200160002060009054906101000a900473ffffffffffffffffffffffffffffffffffffffff169050919050565b600061060b826109d4565b90508073ffffffffffffffffffffffffffffffffffffffff168373ffffffffffffffffffffffffffffffffffffffff16141561067c576040517f08c379a00000000000000000000000000000000000000000000000000000000081526004016106739061354a565b60405180910390fd5b8073ffffffffffffffffffffffffffffffffffffffff1661069b6113ee565b73ffffffffffffffffffffffffffffffffffffffff1614806106ca57506106c9816106c46113ee565b6111dd565b5b610709576040517f08c379a00000000000000000000000000000000000000000000000000000000081526004016107009061342a565b60405180910390fd5b61071383836113f6565b505050565b6107296107236113ee565b826114af565b610768576040517f08c379a000000000000000000000000000000000000000000000000000000000815260040161075f9061356a565b60405180910390fd5b61077383838361158d565b505050565b606060006107ac610788846117e9565b6040516020016107989190613219565b604051602081830303815290604052611996565b9050600a80549050816107bf91906138a4565b9050600a81815481106107fb577f4e487b7100000000000000000000000000000000000000000000000000000000600052603260045260246000fd5b90600052602060002001805461081090613829565b80601f016020809104026020016040519081016040528092919081815260200182805461083c90613829565b80156108895780601f1061085e57610100808354040283529160200191610889565b820191906000526020600020905b81548152906001019060200180831161086c57829003601f168201915b5050505050915050919050565b6108b183838360405180602001604052806000815250610d04565b505050565b606060006108ea6108c6846117e9565b6040516020016108d6919061325d565b604051602081830303815290604052611996565b9050600d80549050816108fd91906138a4565b9050600d8181548110610939577f4e487b7100000000000000000000000000000000000000000000000000000000600052603260045260246000fd5b90600052602060002001805461094e90613829565b80601f016020809104026020016040519081016040528092919081815260200182805461097a90613829565b80156109c75780601f1061099c576101008083540402835291602001916109c7565b820191906000526020600020905b8154815290600101906020018083116109aa57829003601f168201915b5050505050915050919050565b6000806002600084815260200190815260200160002060009054906101000a900473ffffffffffffffffffffffffffffffffffffffff169050600073ffffffffffffffffffffffffffffffffffffffff168173ffffffffffffffffffffffffffffffffffffffff161415610a7d576040517f08c379a0000000000000000000000000000000000000000000000000000000008152600401610a749061346a565b60405180910390fd5b80915050919050565b60008073ffffffffffffffffffffffffffffffffffffffff168273ffffffffffffffffffffffffffffffffffffffff161415610af7576040517f08c379a0000000000000000000000000000000000000000000000000000000008152600401610aee9061344a565b60405180910390fd5b600360008373ffffffffffffffffffffffffffffffffffffffff1673ffffffffffffffffffffffffffffffffffffffff168152602001908152602001600020549050919050565b606060018054610b4d90613829565b80601f0160208091040260200160405190810160405280929190818152602001828054610b7990613829565b8015610bc65780601f10610b9b57610100808354040283529160200191610bc6565b820191906000526020600020905b815481529060010190602001808311610ba957829003601f168201915b5050505050905090565b610be2610bdb6113ee565b83836119c9565b5050565b60606000610c1a610bf6846117e9565b604051602001610c0691906131b2565b604051602081830303815290604052611996565b9050600b8054905081610c2d91906138a4565b9050600b8181548110610c69577f4e487b7100000000000000000000000000000000000000000000000000000000600052603260045260246000fd5b906000526020600020018054610c7e90613829565b80601f0160208091040260200160405190810160405280929190818152602001828054610caa90613829565b8015610cf75780601f10610ccc57610100808354040283529160200191610cf7565b820191906000526020600020905b815481529060010190602001808311610cda57829003601f168201915b5050505050915050919050565b610d15610d0f6113ee565b836114af565b610d54576040517f08c379a0000000000000000000000000000000000000000000000000000000008152600401610d4b9061356a565b60405180910390fd5b610d6084848484611b36565b50505050565b60606000610d9a610d76846117e9565b604051602001610d869190613190565b604051602081830303815290604052611996565b9050600c8054905081610dad91906138a4565b9050600c8181548110610de9577f4e487b7100000000000000000000000000000000000000000000000000000000600052603260045260246000fd5b906000526020600020018054610dfe90613829565b80601f0160208091040260200160405190810160405280929190818152602001828054610e2a90613829565b8015610e775780601f10610e4c57610100808354040283529160200191610e77565b820191906000526020600020905b815481529060010190602001808311610e5a57829003601f168201915b5050505050915050919050565b6060610e8f82611382565b610ece576040517f08c379a0000000000000000000000000000000000000000000000000000000008152600401610ec5906134ca565b60405180910390fd5b6000600660008481526020019081526020016000208054610eee90613829565b80601f0160208091040260200160405190810160405280929190818152602001828054610f1a90613829565b8015610f675780601f10610f3c57610100808354040283529160200191610f67565b820191906000526020600020905b815481529060010190602001808311610f4a57829003601f168201915b505050505090506000610f78611b92565b9050600081511415610f8e578192505050610fd1565b600082511115610fc3578082604051602001610fab9291906130f2565b60405160208183030381529060405292505050610fd1565b610fcc84611ba9565b925050505b919050565b6000610fe26007611374565b905060328110610ff157600080fd5b6000610ffc82610778565b9050600061100983610be6565b9050600061101684610d66565b9050600083838360405160200161102f93929190613116565b6040516020818303038152906040529050600061104b866108b6565b905060006008826009856040516020016110689493929190613147565b604051602081830303815290604052905060006110ad8461108884611c50565b6040516020016110999291906131d4565b604051602081830303815290604052611c50565b90506000816040516020016110c2919061323b565b60405160208183030381529060405290506111116040518060400160405280601581526020017f0a2d2d2d2d2d2d2d2d2d2d2d2d2d2d2d2d2d2d2d2d0000000000000000000000815250611271565b61111a81611271565b6111586040518060400160405280601581526020017f2d2d2d2d2d2d2d2d2d2d2d2d2d2d2d2d2d2d2d2d0a0000000000000000000000815250611271565b611162338a611e0e565b61116c8982611e2c565b6111766007611ea0565b6111996040518060600160405280602581526020016139ff602591398a33611eb6565b7febb98688741ffa4c7589bf325de30cf7becb63de567842e1ccdb6cb949fdc82c338a6040516111ca9291906132e6565b60405180910390a1505050505050505050565b6000600560008473ffffffffffffffffffffffffffffffffffffffff1673ffffffffffffffffffffffffffffffffffffffff16815260200190815260200160002060008373ffffffffffffffffffffffffffffffffffffffff1673ffffffffffffffffffffffffffffffffffffffff16815260200190815260200160002060009054906101000a900460ff16905092915050565b61130781604051602401611285919061332a565b6040516020818303038152906040527f41304fac000000000000000000000000000000000000000000000000000000007bffffffffffffffffffffffffffffffffffffffffffffffffffffffff19166020820180517bffffffffffffffffffffffffffffffffffffffffffffffffffffffff8381831617835250505050611f55565b50565b60007f01ffc9a7000000000000000000000000000000000000000000000000000000007bffffffffffffffffffffffffffffffffffffffffffffffffffffffff1916827bffffffffffffffffffffffffffffffffffffffffffffffffffffffff1916149050919050565b600081600001549050919050565b60008073ffffffffffffffffffffffffffffffffffffffff166002600084815260200190815260200160002060009054906101000a900473ffffffffffffffffffffffffffffffffffffffff1673ffffffffffffffffffffffffffffffffffffffff1614159050919050565b600033905090565b816004600083815260200190815260200160002060006101000a81548173ffffffffffffffffffffffffffffffffffffffff021916908373ffffffffffffffffffffffffffffffffffffffff160217905550808273ffffffffffffffffffffffffffffffffffffffff16611469836109d4565b73ffffffffffffffffffffffffffffffffffffffff167f8c5be1e5ebec7d5bd14f71427d1e84f3dd0314c0f7b2291e5b200ac8c7c3b92560405160405180910390a45050565b60006114ba82611382565b6114f9576040517f08c379a00000000000000000000000000000000000000000000000000000000081526004016114f09061340a565b60405180910390fd5b6000611504836109d4565b90508073ffffffffffffffffffffffffffffffffffffffff168473ffffffffffffffffffffffffffffffffffffffff16148061157357508373ffffffffffffffffffffffffffffffffffffffff1661155b8461057b565b73ffffffffffffffffffffffffffffffffffffffff16145b80611584575061158381856111dd565b5b91505092915050565b8273ffffffffffffffffffffffffffffffffffffffff166115ad826109d4565b73ffffffffffffffffffffffffffffffffffffffff1614611603576040517f08c379a00000000000000000000000000000000000000000000000000000000081526004016115fa9061350a565b60405180910390fd5b600073ffffffffffffffffffffffffffffffffffffffff168273ffffffffffffffffffffffffffffffffffffffff161415611673576040517f08c379a000000000000000000000000000000000000000000000000000000000815260040161166a906133ca565b60405180910390fd5b61167e838383611f7e565b6116896000826113f6565b6001600360008573ffffffffffffffffffffffffffffffffffffffff1673ffffffffffffffffffffffffffffffffffffffff16815260200190815260200160002060008282546116d9919061373f565b925050819055506001600360008473ffffffffffffffffffffffffffffffffffffffff1673ffffffffffffffffffffffffffffffffffffffff1681526020019081526020016000206000828254611730919061365e565b92505081905550816002600083815260200190815260200160002060006101000a81548173ffffffffffffffffffffffffffffffffffffffff021916908373ffffffffffffffffffffffffffffffffffffffff160217905550808273ffffffffffffffffffffffffffffffffffffffff168473ffffffffffffffffffffffffffffffffffffffff167fddf252ad1be2c89b69c2b068fc378daa952ba7f163c4a11628f55a4df523b3ef60405160405180910390a4505050565b60606000821415611831576040518060400160405280600181526020017f30000000000000000000000000000000000000000000000000000000000000008152509050611991565b600082905060005b6000821461186357808061184c9061385b565b915050600a8261185c91906136b4565b9150611839565b60008167ffffffffffffffff8111156118a5577f4e487b7100000000000000000000000000000000000000000000000000000000600052604160045260246000fd5b6040519080825280601f01601f1916602001820160405280156118d75781602001600182028036833780820191505090505b5090505b6000851461198a576001826118f0919061373f565b9150600a856118ff91906138a4565b603061190b919061365e565b60f81b818381518110611947577f4e487b7100000000000000000000000000000000000000000000000000000000600052603260045260246000fd5b60200101907effffffffffffffffffffffffffffffffffffffffffffffffffffffffffffff1916908160001a905350600a8561198391906136b4565b94506118db565b8093505050505b919050565b6000816040516020016119a991906130db565b6040516020818303038152906040528051906020012060001c9050919050565b8173ffffffffffffffffffffffffffffffffffffffff168373ffffffffffffffffffffffffffffffffffffffff161415611a38576040517f08c379a0000000000000000000000000000000000000000000000000000000008152600401611a2f906133ea565b60405180910390fd5b80600560008573ffffffffffffffffffffffffffffffffffffffff1673ffffffffffffffffffffffffffffffffffffffff16815260200190815260200160002060008473ffffffffffffffffffffffffffffffffffffffff1673ffffffffffffffffffffffffffffffffffffffff16815260200190815260200160002060006101000a81548160ff0219169083151502179055508173ffffffffffffffffffffffffffffffffffffffff168373ffffffffffffffffffffffffffffffffffffffff167f17307eab39ab6107e8899845ad3d59bd9653f200f220920489ca2b5937696c3183604051611b29919061330f565b60405180910390a3505050565b611b4184848461158d565b611b4d84848484611f83565b611b8c576040517f08c379a0000000000000000000000000000000000000000000000000000000008152600401611b839061338a565b60405180910390fd5b50505050565b606060405180602001604052806000815250905090565b6060611bb482611382565b611bf3576040517f08c379a0000000000000000000000000000000000000000000000000000000008152600401611bea9061352a565b60405180910390fd5b6000611bfd611b92565b90506000815111611c1d5760405180602001604052806000815250611c48565b80611c27846117e9565b604051602001611c389291906130f2565b6040516020818303038152906040525b915050919050565b60606000825190506000811415611c795760405180602001604052806000815250915050611e09565b60006003600283611c8a919061365e565b611c9491906136b4565b6004611ca091906136e5565b90506000602082611cb1919061365e565b67ffffffffffffffff811115611cf0577f4e487b7100000000000000000000000000000000000000000000000000000000600052604160045260246000fd5b6040519080825280601f01601f191660200182016040528015611d225781602001600182028036833780820191505090505b5090506000604051806060016040528060408152602001613a24604091399050600181016020830160005b86811015611dc65760038101905062ffffff818a015116603f8160121c168401518060081b905060ff603f83600c1c1686015116810190508060081b905060ff603f8360061c1686015116810190508060081b905060ff603f831686015116810190508060e01b90508084526004840193505050611d4d565b506003860660018114611de05760028114611df057611dfb565b613d3d60f01b6002830352611dfb565b603d60f81b60018303525b508484525050819450505050505b919050565b611e2882826040518060200160405280600081525061211a565b5050565b611e3582611382565b611e74576040517f08c379a0000000000000000000000000000000000000000000000000000000008152600401611e6b9061348a565b60405180910390fd5b80600660008481526020019081526020016000209080519060200190611e9b929190612356565b505050565b6001816000016000828254019250508190555050565b611f50838383604051602401611ece9392919061334c565b6040516020818303038152906040527fe3849f79000000000000000000000000000000000000000000000000000000007bffffffffffffffffffffffffffffffffffffffffffffffffffffffff19166020820180517bffffffffffffffffffffffffffffffffffffffffffffffffffffffff8381831617835250505050611f55565b505050565b60008151905060006a636f6e736f6c652e6c6f679050602083016000808483855afa5050505050565b505050565b6000611fa48473ffffffffffffffffffffffffffffffffffffffff16612175565b1561210d578373ffffffffffffffffffffffffffffffffffffffff1663150b7a02611fcd6113ee565b8786866040518563ffffffff1660e01b8152600401611fef949392919061329a565b602060405180830381600087803b15801561200957600080fd5b505af192505050801561203a57506040513d601f19601f82011682018060405250810190612037919061269a565b60015b6120bd573d806000811461206a576040519150601f19603f3d011682016040523d82523d6000602084013e61206f565b606091505b506000815114156120b5576040517f08c379a00000000000000000000000000000000000000000000000000000000081526004016120ac9061338a565b60405180910390fd5b805181602001fd5b63150b7a0260e01b7bffffffffffffffffffffffffffffffffffffffffffffffffffffffff1916817bffffffffffffffffffffffffffffffffffffffffffffffffffffffff191614915050612112565b600190505b949350505050565b6121248383612188565b6121316000848484611f83565b612170576040517f08c379a00000000000000000000000000000000000000000000000000000000081526004016121679061338a565b60405180910390fd5b505050565b600080823b905060008111915050919050565b600073ffffffffffffffffffffffffffffffffffffffff168273ffffffffffffffffffffffffffffffffffffffff1614156121f8576040517f08c379a00000000000000000000000000000000000000000000000000000000081526004016121ef906134aa565b60405180910390fd5b61220181611382565b15612241576040517f08c379a0000000000000000000000000000000000000000000000000000000008152600401612238906133aa565b60405180910390fd5b61224d60008383611f7e565b6001600360008473ffffffffffffffffffffffffffffffffffffffff1673ffffffffffffffffffffffffffffffffffffffff168152602001908152602001600020600082825461229d919061365e565b92505081905550816002600083815260200190815260200160002060006101000a81548173ffffffffffffffffffffffffffffffffffffffff021916908373ffffffffffffffffffffffffffffffffffffffff160217905550808273ffffffffffffffffffffffffffffffffffffffff16600073ffffffffffffffffffffffffffffffffffffffff167fddf252ad1be2c89b69c2b068fc378daa952ba7f163c4a11628f55a4df523b3ef60405160405180910390a45050565b82805461236290613829565b90600052602060002090601f01602090048101928261238457600085556123cb565b82601f1061239d57805160ff19168380011785556123cb565b828001600101855582156123cb579182015b828111156123ca5782518255916020019190600101906123af565b5b5090506123d891906123dc565b5090565b5b808211156123f55760008160009055506001016123dd565b5090565b600061240c612407846135d6565b6135a5565b90508281526020810184848401111561242457600080fd5b61242f8482856137e7565b509392505050565b600081359050612446816139a2565b92915050565b60008135905061245b816139b9565b92915050565b600081359050612470816139d0565b92915050565b600081519050612485816139d0565b92915050565b600082601f83011261249c57600080fd5b81356124ac8482602086016123f9565b91505092915050565b6000813590506124c4816139e7565b92915050565b6000602082840312156124dc57600080fd5b60006124ea84828501612437565b91505092915050565b6000806040838503121561250657600080fd5b600061251485828601612437565b925050602061252585828601612437565b9150509250929050565b60008060006060848603121561254457600080fd5b600061255286828701612437565b935050602061256386828701612437565b9250506040612574868287016124b5565b9150509250925092565b6000806000806080858703121561259457600080fd5b60006125a287828801612437565b94505060206125b387828801612437565b93505060406125c4878288016124b5565b925050606085013567ffffffffffffffff8111156125e157600080fd5b6125ed8782880161248b565b91505092959194509250565b6000806040838503121561260c57600080fd5b600061261a85828601612437565b925050602061262b8582860161244c565b9150509250929050565b6000806040838503121561264857600080fd5b600061265685828601612437565b9250506020612667858286016124b5565b9150509250929050565b60006020828403121561268357600080fd5b600061269184828501612461565b91505092915050565b6000602082840312156126ac57600080fd5b60006126ba84828501612476565b91505092915050565b6000602082840312156126d557600080fd5b60006126e3848285016124b5565b91505092915050565b6126f581613773565b82525050565b61270481613785565b82525050565b60006127158261361b565b61271f8185613631565b935061272f8185602086016137f6565b61273881613991565b840191505092915050565b600061274e82613626565b6127588185613642565b93506127688185602086016137f6565b61277181613991565b840191505092915050565b600061278782613626565b6127918185613653565b93506127a18185602086016137f6565b80840191505092915050565b600081546127ba81613829565b6127c48186613653565b945060018216600081146127df57600181146127f057612823565b60ff19831686528186019350612823565b6127f985613606565b60005b8381101561281b578154818901526001820191506020810190506127fc565b838801955050505b50505092915050565b6000612839603283613642565b91507f4552433732313a207472616e7366657220746f206e6f6e20455243373231526560008301527f63656976657220696d706c656d656e74657200000000000000000000000000006020830152604082019050919050565b600061289f601c83613642565b91507f4552433732313a20746f6b656e20616c7265616479206d696e746564000000006000830152602082019050919050565b60006128df600a83613653565b91507f54484952445f574f5244000000000000000000000000000000000000000000006000830152600a82019050919050565b600061291f602483613642565b91507f4552433732313a207472616e7366657220746f20746865207a65726f2061646460008301527f72657373000000000000000000000000000000000000000000000000000000006020830152604082019050919050565b6000612985601983613642565b91507f4552433732313a20617070726f766520746f2063616c6c6572000000000000006000830152602082019050919050565b60006129c5606383613653565b91507f222c20226465736372697074696f6e223a20224120686967686c79206163636c60008301527f61696d656420636f6c6c656374696f6e206f6620737175617265732e222c202260208301527f696d616765223a2022646174613a696d6167652f7376672b786d6c3b6261736560408301527f36342c00000000000000000000000000000000000000000000000000000000006060830152606382019050919050565b6000612a77600b83613653565b91507f5345434f4e445f574f52440000000000000000000000000000000000000000006000830152600b82019050919050565b6000612ab7602c83613642565b91507f4552433732313a206f70657261746f7220717565727920666f72206e6f6e657860008301527f697374656e7420746f6b656e00000000000000000000000000000000000000006020830152604082019050919050565b6000612b1d600d83613653565b91507f3c2f746578743e3c2f7376673e000000000000000000000000000000000000006000830152600d82019050919050565b6000612b5d603883613642565b91507f4552433732313a20617070726f76652063616c6c6572206973206e6f74206f7760008301527f6e6572206e6f7220617070726f76656420666f7220616c6c00000000000000006020830152604082019050919050565b6000612bc3602a83613642565b91507f4552433732313a2062616c616e636520717565727920666f7220746865207a6560008301527f726f2061646472657373000000000000000000000000000000000000000000006020830152604082019050919050565b6000612c29602983613642565b91507f4552433732313a206f776e657220717565727920666f72206e6f6e657869737460008301527f656e7420746f6b656e00000000000000000000000000000000000000000000006020830152604082019050919050565b6000612c8f602e83613642565b91507f45524337323155524953746f726167653a2055524920736574206f66206e6f6e60008301527f6578697374656e7420746f6b656e0000000000000000000000000000000000006020830152604082019050919050565b6000612cf5600283613653565b91507f227d0000000000000000000000000000000000000000000000000000000000006000830152600282019050919050565b6000612d35602083613642565b91507f4552433732313a206d696e7420746f20746865207a65726f20616464726573736000830152602082019050919050565b6000612d75603183613642565b91507f45524337323155524953746f726167653a2055524920717565727920666f722060008301527f6e6f6e6578697374656e7420746f6b656e0000000000000000000000000000006020830152604082019050919050565b6000612ddb602c83613642565b91507f4552433732313a20617070726f76656420717565727920666f72206e6f6e657860008301527f697374656e7420746f6b656e00000000000000000000000000000000000000006020830152604082019050919050565b6000612e41602983613642565b91507f4552433732313a207472616e73666572206f6620746f6b656e2074686174206960008301527f73206e6f74206f776e00000000000000000000000000000000000000000000006020830152604082019050919050565b6000612ea7602f83613642565b91507f4552433732314d657461646174613a2055524920717565727920666f72206e6f60008301527f6e6578697374656e7420746f6b656e00000000000000000000000000000000006020830152604082019050919050565b6000612f0d600a83613653565b91507f7b226e616d65223a2022000000000000000000000000000000000000000000006000830152600a82019050919050565b6000612f4d602183613642565b91507f4552433732313a20617070726f76616c20746f2063757272656e74206f776e6560008301527f72000000000000000000000000000000000000000000000000000000000000006020830152604082019050919050565b6000612fb3600a83613653565b91507f46495253545f574f5244000000000000000000000000000000000000000000006000830152600a82019050919050565b6000612ff3601d83613653565b91507f646174613a6170706c69636174696f6e2f6a736f6e3b6261736536342c0000006000830152601d82019050919050565b6000613033603183613642565b91507f4552433732313a207472616e736665722063616c6c6572206973206e6f74206f60008301527f776e6572206e6f7220617070726f7665640000000000000000000000000000006020830152604082019050919050565b6000613099600583613653565b91507f434f4c4f520000000000000000000000000000000000000000000000000000006000830152600582019050919050565b6130d5816137dd565b82525050565b60006130e7828461277c565b915081905092915050565b60006130fe828561277c565b915061310a828461277c565b91508190509392505050565b6000613122828661277c565b915061312e828561277c565b915061313a828461277c565b9150819050949350505050565b600061315382876127ad565b915061315f828661277c565b915061316b82856127ad565b9150613177828461277c565b915061318282612b10565b915081905095945050505050565b600061319b826128d2565b91506131a7828461277c565b915081905092915050565b60006131bd82612a6a565b91506131c9828461277c565b915081905092915050565b60006131df82612f00565b91506131eb828561277c565b91506131f6826129b8565b9150613202828461277c565b915061320d82612ce8565b91508190509392505050565b600061322482612fa6565b9150613230828461277c565b915081905092915050565b600061324682612fe6565b9150613252828461277c565b915081905092915050565b60006132688261308c565b9150613274828461277c565b915081905092915050565b600060208201905061329460008301846126ec565b92915050565b60006080820190506132af60008301876126ec565b6132bc60208301866126ec565b6132c960408301856130cc565b81810360608301526132db818461270a565b905095945050505050565b60006040820190506132fb60008301856126ec565b61330860208301846130cc565b9392505050565b600060208201905061332460008301846126fb565b92915050565b600060208201905081810360008301526133448184612743565b905092915050565b600060608201905081810360008301526133668186612743565b905061337560208301856130cc565b61338260408301846126ec565b949350505050565b600060208201905081810360008301526133a38161282c565b9050919050565b600060208201905081810360008301526133c381612892565b9050919050565b600060208201905081810360008301526133e381612912565b9050919050565b6000602082019050818103600083015261340381612978565b9050919050565b6000602082019050818103600083015261342381612aaa565b9050919050565b6000602082019050818103600083015261344381612b50565b9050919050565b6000602082019050818103600083015261346381612bb6565b9050919050565b6000602082019050818103600083015261348381612c1c565b9050919050565b600060208201905081810360008301526134a381612c82565b9050919050565b600060208201905081810360008301526134c381612d28565b9050919050565b600060208201905081810360008301526134e381612d68565b9050919050565b6000602082019050818103600083015261350381612dce565b9050919050565b6000602082019050818103600083015261352381612e34565b9050919050565b6000602082019050818103600083015261354381612e9a565b9050919050565b6000602082019050818103600083015261356381612f40565b9050919050565b6000602082019050818103600083015261358381613026565b9050919050565b600060208201905061359f60008301846130cc565b92915050565b6000604051905081810181811067ffffffffffffffff821117156135cc576135cb613962565b5b8060405250919050565b600067ffffffffffffffff8211156135f1576135f0613962565b5b601f19601f8301169050602081019050919050565b60008190508160005260206000209050919050565b600081519050919050565b600081519050919050565b600082825260208201905092915050565b600082825260208201905092915050565b600081905092915050565b6000613669826137dd565b9150613674836137dd565b9250827fffffffffffffffffffffffffffffffffffffffffffffffffffffffffffffffff038211156136a9576136a86138d5565b5b828201905092915050565b60006136bf826137dd565b91506136ca836137dd565b9250826136da576136d9613904565b5b828204905092915050565b60006136f0826137dd565b91506136fb836137dd565b9250817fffffffffffffffffffffffffffffffffffffffffffffffffffffffffffffffff0483118215151615613734576137336138d5565b5b828202905092915050565b600061374a826137dd565b9150613755836137dd565b925082821015613768576137676138d5565b5b828203905092915050565b600061377e826137bd565b9050919050565b60008115159050919050565b60007fffffffff0000000000000000000000000000000000000000000000000000000082169050919050565b600073ffffffffffffffffffffffffffffffffffffffff82169050919050565b6000819050919050565b82818337600083830152505050565b60005b838110156138145780820151818401526020810190506137f9565b83811115613823576000848401525b50505050565b6000600282049050600182168061384157607f821691505b6020821081141561385557613854613933565b5b50919050565b6000613866826137dd565b91507fffffffffffffffffffffffffffffffffffffffffffffffffffffffffffffffff821415613899576138986138d5565b5b600182019050919050565b60006138af826137dd565b91506138ba836137dd565b9250826138ca576138c9613904565b5b828206905092915050565b7f4e487b7100000000000000000000000000000000000000000000000000000000600052601160045260246000fd5b7f4e487b7100000000000000000000000000000000000000000000000000000000600052601260045260246000fd5b7f4e487b7100000000000000000000000000000000000000000000000000000000600052602260045260246000fd5b7f4e487b7100000000000000000000000000000000000000000000000000000000600052604160045260246000fd5b6000601f19601f8301169050919050565b6139ab81613773565b81146139b657600080fd5b50565b6139c281613785565b81146139cd57600080fd5b50565b6139d981613791565b81146139e457600080fd5b50565b6139f0816137dd565b81146139fb57600080fd5b5056fe416e204e465420772f20494420257320686173206265656e206d696e74656420746f2025734142434445464748494a4b4c4d4e4f505152535455565758595a6162636465666768696a6b6c6d6e6f707172737475767778797a303132333435363738392b2fa26469706673582212203b349b795bff6f4a90ffb24ce402153f4c1ab1769be0fc4fbc6e674251e65ee664736f6c634300080000333c73766720786d6c6e733d27687474703a2f2f7777772e77332e6f72672f323030302f73766727207072657365727665417370656374526174696f3d27784d696e594d696e206d656574272076696577426f783d273020302033353020333530273e3c7374796c653e2e62617365207b2066696c6c3a2077686974653b20666f6e742d66616d696c793a2073657269663b20666f6e742d73697a653a20323470783b207d3c2f7374796c653e3c726563742077696474683d273130302527206865696768743d2731303025272066696c6c3d27272f3e3c7465787420783d273530252720793d273530252720636c6173733d27626173652720646f6d696e616e742d626173656c696e653d276d6964646c652720746578742d616e63686f723d276d6964646c65273e",
  "linkReferences": {},
  "deployedLinkReferences": {}
}